:020000040800F2
:10000000982E00204D0C0008550C0008570C0008D5
:10001000590C00085B0C00085D0C00080000000093
:100020000000000000000000000000005F0C00085D
:10003000610C000800000000875A0008C130000869
:10004000670C00084B330008670C0008670C0008B9
:10005000670C0008670C0008670C0008670C0008B4
:10006000670C0008670C0008670C0008670C0008A4
:10007000670C0008670C0008670C0008670C000894
:10008000670C0008670C0008670C0008670C000884
:10009000670C0008670C0008670C0008670C000874
:1000A000670C0008670C0008670C0008670C000864
:1000B000E9740008670C0008336E0008670C00083C
:1000C000670C0008670C0008670C0008670C000844
:1000D000670C0008E16C0008670C0008CF7200088C
:1000E000670C0008670C0008670C000800F002F8B5
:1000F00000F05AF80AA090E8000C82448344AAF168
:100100000107DA4501D100F04FF8AFF2090EBAE865
:100110000F0013F0010F18BFFB1A43F0010318473B
:100120000C9F00002C9F00000A444FF0000C10F8B8
:10013000013B13F0070408BF10F8014B1D1108BF65
:1001400010F8015B641E05D010F8016B641E01F805
:10015000016BF9D113F0080F1EBF10F8014BAD1C55
:100160000C1B09D16D1E58BF01F801CBFAD505E073
:1001700014F8016B01F8016B6D1EF9D59142D6D3CD
:10018000704700000023002400250026103A28BFF5
:1001900078C1FBD8520728BF30C148BF0B607047F9
:1001A0001FB51FBD10B510BD08F0A1FA1146FFF72D
:1001B000F7FF00F076FA08F0BFFA03B4FFF7F2FF9A
:1001C00003BC08F07DFA000010B504461E21F74874
:1001D00008F0D3F9F6480460A01CF5494860201DDA
:1001E0008860A01DC860801C0861801C4861801C5C
:1001F0008861801CC861801C0862801C4862801C69
:100200008862801CC862801C0863801C4863801C54
:10021000886310BD2DE9F0470446A246E5495046E3
:1002200009F004FA8146484609F066F9074608F0E5
:1002300027FB054608F0D2FC8146DF49484609F015
:10024000F5F98146DD49484609F082F9814649467B
:100250004FF07E5009F0EAF98146D949484609F045
:1002600025FC81464846BDE8F08711E00821D548C5
:1002700000F087FED449098888B202F07AFF08218D
:10028000D04800F080FED049098888B202F071FFA2
:10029000ECE70146232901D3A02901D901207047A9
:1002A00042F21070B0FBF1F0421EC84B1A80501C95
:1002B000C0F34F00C54B083318800020EFE7002043
:1002C000C2490831088070470146212901DBA22973
:1002D00001DD00207047232901DA2320FAE7A02955
:1002E00001DDA020F6E70846F4E730B587B0054603
:1002F0000121022001F061F842F21070B0FBF5F02C
:10030000441EB4F5803F01D34FF6FF7404B90124B5
:10031000A0B2ADF8140041F61F40ADF81000002067
:10032000ADF81600ADF812008DF8180004A9A74822
:100330002C3801F071FB6020ADF800000120ADF811
:1003400002000020ADF80400ADF80800ADF80A0086
:10035000ADF80C00ADF80E00601CC0F34F00ADF816
:100360000600694699482C3801F093FB082197480C
:100370002C3801F0DDFF012194482C3801F0A8FF52
:10038000012192482C3802F069F901218F482C385C
:1003900001F09EFE07B030BD8CB04FF0FF354FF03E
:1003A00080438B4A4FF0824103A805F09FFB232036
:1003B000FFF79BFF4FF47A7002F0DBFE3AE07B48D8
:1003C000808801281FD17949B1F9080009F010FA95
:1003D00006467649B1F9060009F00AFA07464FF0D9
:1003E0007C50A02123233246CDE90010394603A8D2
:1003F00005F08AFB774908800846008800B2FFF7BD
:1004000063FF044605E06949B1F91C00FFF75CFF92
:10041000044620B265494881AC4207D014B9FFF7C1
:100420004EFF02E02046FFF734FF25464FF4FA70F6
:1004300002F09FFEC3E70024204609F0B9F985B217
:10044000284603F0B0F84FF47A7002F092FED6E03E
:100450004FF07C5260480168002003F035F80546F3
:1004600009F0DEF95C4908604FF08B415A4800689A
:1004700009F0DCF8044621464FF07E5009F0D6F82A
:1004800005464FF07E5109F011FB044621464948CC
:1004900009F0CCF804465148006818B901204349D6
:1004A000888102E00020414988814C48001D006895
:1004B00018B901203D49C88102E000203B49C881AC
:1004C0003A48008A012804D12021454800F059FD0E
:1004D00003E02021424800F056FD3448408A0128BC
:1004E00004D180213E4800F04EFD03E080213C48CD
:1004F00000F047FD2D48808A012804D101023848C8
:1005000000F041FD04E04FF48071354800F039FD02
:100510002648C08A012804D10821324800F033FD62
:1005200003E008212F4800F02CFD2048008B012813
:1005300004D104212B4800F026FD03E004212948C2
:1005400000F01FFD1948408B012804D102212548E5
:1005500000F019FD03E00221224800F012FD1348CB
:10056000B0F902002049B1F90010884215D00F49B6
:10057000B1F9020009F03CF904461C49204609F093
:1005800055F80446204609F013F985B2284603F0D1
:100590000AF806484088144908800448008820B1B9
:1005A0000121104800F0EFFC26E021E0400200208D
:1005B000D81F002000401C4600E076450FCF5B3B73
:1005C00033938843000C01400A0000202C040040B3
:1005D0000AD7A33D020000200400002000012142B0
:1005E0000008014000100140080000205A64EB3F61
:1005F0000121444800F0C5FC642002F0BAFD27E761
:10060000642002F0B6FD642002F0B3FD03E04FF475
:100610007A7002F0AEFDFAE708B500204FF4E1333E
:1006200001220321009006F049F806F0E8F804E002
:1006300006F00AF90A2002F09CFDF9E770B50446BD
:10064000002500BF02F044FD05F0F6F9054605233C
:100650002D4A0021AFF23F0004F076FD03232B4A20
:100660000021AFF2630004F06FFD0823284A002147
:10067000AFF23D2004F068FD0723264A0021AFF2C7
:10068000E72004F061FD0923234A0021AFF2254051
:1006900004F05AFD0A2004F0D7FF284605F0D0F9EF
:1006A00070BD10B502F08EFD1C48FFF78DFD02F005
:1006B0008FFD02F0BDFD02F001FF02F047FF03F0E5
:1006C000CAF80A23164A0021AFF28F0004F03CFD5D
:1006D00003F0E6F9002010BD014609B9002070477B
:1006E0002F2902D84FF4AF60F9E7962902D341F2DF
:1006F0009410F4E7C1EB01104FF6FF7202EA4000DC
:10070000EDE70000001001405C0B00205C070020BA
:100710005C0F00205C1100205C13002040020020D0
:100720005C0300202DE9F84F04460D4617460020D3
:10073000009006F05BFF401E00EB8000C34901EB18
:1007400080084FF000094FF00A0AC148B0F800B025
:10075000681E85B24D451BDBE81909EB0A0188428A
:1007600016DCA5EB0B0086B20FE014F8011B0802A3
:1007700028F8160014F8010B38F81610084328F86A
:100780001600701C86B2781E87B2002FEDDC01E0E7
:10079000012000900098BDE8F88F2DE9FC5F044629
:1007A0000F46164699460020019006F01FFF401E96
:1007B00000EB8000A74901EB80084FF0000A4FF0E2
:1007C0000A0BA548008800904FF00109781E87B2F7
:1007D000574534DBB8190AEB0B0188422FDC00982F
:1007E000381A85B2B9F1000F03D0B9F1010F25D144
:1007F00010E00CE038F81500001204F8010B18F8AE
:10080000150004F8010B681C85B2701E86B2002E1C
:10081000F0DC13E00FE014F8011B080228F81500C3
:1008200014F8010B38F81510084328F81500681C57
:1008300085B2701E86B2002EEDDC00BF01E0012003
:1008400001900198BDE8FC9F2DE9FF5F05460E462B
:1008500014469A46002003902046E11704EB51719C
:10086000C910491C1FFA81F806F0C0FE401E7B49E2
:1008700001EBC009002002904020019078480088D8
:1008800000904FF0010A701E86B20298864271DB1A
:100890003219DDE90110084482426BDC0099711ABB
:1008A00088B2C11700EB5171CF100099711A88B24C
:1008B000C11700EB5171C910A0EBC1011FFA81FBF8
:1008C000BAF1000F03D0BAF1010F51D126E00EE0CA
:1008D00039467A1C97B201EB09000822594605F007
:1008E000D5FC05F8010BA8F101001FFA80F8B8F15A
:1008F000000FEDDC6D1E2046E11704EB5171C910AD
:10090000A4EBC1018CB22878C4F10801884028709A
:100910002878C4F108010841287029E00EE015F894
:10092000013B39467A1C97B201EB0900082259466F
:1009300005F078FCA8F101001FFA80F8B8F1010F6A
:10094000EDDC2046E11704EB5171C910A4EBC101A5
:100950008CB264B115F8013BE2B2394607F1010CE3
:100960001FFA8CF701EB0900594605F05BFC00BF4C
:1009700002E0FFE701200390039804B0BDE8F09F78
:100980002DE9FE4F06460D461446002002902046F3
:10099000E11704EB5171C910491C1FFA81F906F0E7
:1009A00025FE401E2F4901EB400A4FF0000B10209E
:1009B00001902D4800880090681E85B25D4540DB9F
:1009C00029190198584481423BDC0099691A88B280
:1009D000C11700EB5171CF100099691A88B2C11785
:1009E00000EB5171C910A0EBC1011FFA81F80EE0B4
:1009F00016F8013B39467A1C97B201EB0A0008222F
:100A0000414605F00FFCA9F101001FFA80F9B9F188
:100A1000010FEDDC2046E11704EB5171C910A4EB86
:100A2000C1018CB27CB116F8013BE2B2394607F144
:100A3000010C1FFA8CF701EB0A00414605F0F2FBAE
:100A400001E0012002900298BDE8FE8F8013002093
:100A500018000020D01300201A000020601300208E
:100A6000160000200E0000200C0000200CB5002015
:100A7000019000906C48006840F480306A4908603A
:100A800000BF6948006800F4003000900198401CE5
:100A90000190009818B90198B0F5A06FF1D16248A3
:100AA000006800F4003010B10120009001E0002047
:100AB00000900098012843D15C48006840F0100085
:100AC0005A4908600846006820F00300086008469C
:100AD000006840F00200086053484068524948608E
:100AE0000846406848600846406840F480604860B6
:100AF0000846406820F47C1048600846406840F48E
:100B0000E81048600846006840F08070086000BF48
:100B10004548006800F000700028F9D0424840685D
:100B200020F00300404948600846406840F0020059
:100B3000486000BF3C48406800F00C000828F9D12C
:100B40000CBD10B5FFF792FF10BD10B53648006818
:100B500040F00100344908600846406834490840C4
:100B60003149486008460068324908402E4908600B
:100B70000846006820F4802008600846406820F499
:100B8000FE0048604FF41F008860FFF7DAFF4FF067
:100B900000602949086010BD10B500210020002226
:100BA000214B5B6803F00C0121B1042906D0082910
:100BB00028D107E0214B224C236027E01F4B204C1B
:100BC000236023E0184B5B6803F47010164B5B68DE
:100BD00003F48032022303EB904022B9194B4343C4
:100BE000174C23600DE0104B5B6803F4003323B116
:100BF000144B4343124C236003E0104B4343104C0F
:100C0000236003E00D4B0E4C236000BF00BF064B7A
:100C10005B68C3F303130C4CE15C094B1B68CB40CE
:100C2000074C236010BD000000100240002002406D
:100C30000000FFF8FFFFF6FE08ED00E000127A006A
:100C40001C00002000093D002000002009488047CA
:100C500009480047FEE7FEE7FEE7FEE7FEE7FEE79E
:100C6000FEE7FEE7FEE7FEE704480549054A064BB6
:100C7000704700004B0B0008ED000008982400208E
:100C8000982E002098260020982600203149014304
:100C9000314A1160704770B5002100230F22C478DB
:100CA00004B32D4C246804F4E064C4F5E064210A24
:100CB000C1F10403CA40447804FA03F18478144073
:100CC00021430901254C0678A155047804F01F053D
:100CD0000124AC4005786D11AD0005F1E025C5F8A3
:100CE000004109E0047804F01F050124AC401C4DCC
:100CF0000678761145F8264070BD1A4A0A4002432C
:100D0000154B1B1F1A60704739B1134A121D126828
:100D10000243114B1B1D1A6006E00F4A121D126898
:100D200082430D4B1B1D1A607047042808D14FF0F9
:100D3000E021096941F004014FF0E022116107E070
:100D40004FF0E021096921F004014FF0E022116128
:100D5000704700000000FA050CED00E000E400E040
:100D600080E100E080FFFF1F10B50446CC488442BC
:100D700008D10121042000F02DFB0021042000F007
:100D800029FB46E0C748844208D10121082000F031
:100D900021FB0021082000F01DFB3AE0C2488442FC
:100DA00008D10121102000F015FB0021102000F0D7
:100DB00011FB2EE0BD48844208D10121202000F023
:100DC00009FB0021202000F005FB22E0B848844206
:100DD00008D10121402000F0FDFA0021402000F060
:100DE000F9FA16E0B348844208D10121802000F0CE
:100DF000F1FA0021802000F0EDFA0AE0AE488442CA
:100E000007D10121801500F0E5FA0021A01500F0BE
:100E1000E1FA10BD10B50121084600F0DBFA00210F
:100E2000012000F0D7FA10BD2DE9F041024600255F
:100E30000026002000230024002791F803C00CF0B6
:100E40000F0591F803C00CF0100CBCF1000F03D09B
:100E500091F802C04CEA050591F800C0BCF1000F02
:100E600031D0146800202BE04FF0010C0CFA00F395
:100E7000B1F800C00CEA03069E4220D183004FF077
:100E80000F0C0CFA03F7BC4305FA03FC4CEA04040C
:100E900091F803C0BCF1280F06D14FF0010C0CFAF9
:100EA00000FCC2F814C00AE091F803C0BCF1480F7E
:100EB00005D14FF0010C0CFA00FCC2F810C0401C28
:100EC0000828D1D31460B1F800C0BCF1FF0F34DDA5
:100ED000546800202EE000F1080C4FF0010808FAD9
:100EE0000CF3B1F800C00CEA03069E4221D1830046
:100EF0004FF00F0C0CFA03F7BC4305FA03FC4CEA65
:100F0000040491F803C0BCF1280F05D100F1080CCE
:100F100008FA0CF8C2F8148091F803C0BCF1480F2D
:100F200007D100F1080C4FF0010808FA0CF8C2F8DC
:100F30001080401C0828CED35460BDE8F0814FF6E5
:100F4000FF710180022181700421C1707047024647
:100F5000002093680B400BB1012000E00020704797
:100F60000146886880B2704702460020D3680B4073
:100F70000BB1012000E0002070470146C86880B234
:100F8000704701617047416170470AB1016100E03B
:100F900041617047C16070474FF480320A438261FB
:100FA0008161826182698269704702460020434BF9
:100FB00018684FF68073184040EA021008433F4B10
:100FC000186070473E49C8617047F0B50A46002373
:100FD00000240021002500F00046B6F1004F02D1A8
:100FE000364EF16901E0354E7168C0F3034583B2B6
:100FF00000F44016B6F5401F08D121F070612F4E65
:10100000766826F070662D4F7E6012E000F4801640
:10101000B6F5801F06D1032606FA05F4A14341F078
:10102000706106E0460D360103FA06F6B14341F061
:10103000706122B1460D360103FA06F6314300F025
:101040000046B6F1004F02D11C4EF16101E01B4E8B
:101050007160F0BD30B500228B071C0F0F2303FA1F
:1010600004F2164B08338C1053F824309343134C7E
:1010700008348D1044F8253023468C1053F8243062
:101080008C07240F00FA04F423430C4C08348D1011
:1010900044F8253030BD0A49DC3108607047000053
:1010A00000080140000C0140001001400014014004
:1010B00000180140001C01400020014000000140D8
:1010C00000002042DF48006840F00100DD49086070
:1010D00008464068DC490840DA494860084600682C
:1010E000DA490840D74908600846006820F48020A3
:1010F00008600846406820F4FE0048604FF41F0076
:1011000088607047CF49096821F48031CD4A116069
:101110001146096821F480211160B0F5803F03D0A9
:10112000B0F5802F0ED106E0C649096841F4803140
:10113000C44A116007E0C349096841F4A021C14ACB
:10114000116000E000BF00BF704710B501460022EB
:10115000002300204A11012A02D1BA4C236806E07C
:10116000022A02D1B74C236A01E0B64C636A01F04F
:101170001F02012494401C400CB1012000E000201B
:1011800010BD38B5002000900024002500BF31209C
:10119000FFF7DBFF05460098401C00900098B0F573
:1011A000A06F01D0002DF2D03120FFF7CEFF08B1A3
:1011B000012400E00024204638BD01460020A14A59
:1011C000106820F0F80040EAC10010607047A049A4
:1011D00008607047024600209A4B586820F47C1043
:1011E00042EA01031843974B5860704798490866D4
:1011F000704701460020934A506820F003000843DE
:10120000506070478F48406800F00C0070470146FE
:1012100000208C4A506820F0F0000843506070476E
:1012200001460020874A506820F4E060084350607F
:10123000704701460020834A506820F4605040EA1D
:10124000C1005060704729B17E4A527A02437D4BFB
:101250005A7204E07B4A527A82437A4B5A72704740
:101260007B49D8310860704701460020754A5068B4
:1012700020F440400843506070470021714A2032FA
:101280001170704A82F82010012802D004280AD177
:1012900004E001216B4A2032117005E00521694A02
:1012A0002032117000E000BF00BF7047694908603C
:1012B00070476449096A0143624A1162704765498F
:1012C00044390860704730B5002100220024002313
:1012D0005C4D6D6805F00C0121B1042905D0082989
:1012E00023D105E05C4D056022E05B4D05601FE009
:1012F000544D6D6805F47012524D6D6805F48034DC
:10130000022505EB92421CB9544D554305600BE094
:101310004C4D6D6805F400351DB1504D55430560C9
:1013200002E04D4D5543056002E04B4D056000BFA6
:1013300000BF444D6D6805F0F0010909484D6B5C34
:101340000568DD4045603F4D6D6805F4E061090AC0
:10135000434D6B5C4568DD4085603A4D6D6805F432
:101360006051C90A3E4D6B5C4568DD40C560354D36
:101370006D6805F44041890B3A4D6B5CC568B5FB5F
:10138000F3F5056130BD29B12E4A526902432D4B58
:101390005A6104E02B4A526982432A4B5A617047D2
:1013A00029B1284A92690243264B9A6104E0254AF2
:1013B00092698243234B9A61704729B1214AD269CD
:1013C0000243204BDA6104E01E4AD26982431D4B7E
:1013D000DA61704729B11B4AD2680243194BDA60BF
:1013E00004E0184AD2688243164BDA60704729B18C
:1013F000144A12690243134B1A6104E0114A12693C
:101400008243104B1A617047124940390860704797
:101410000F49C86470470B49C87170470948406A52
:1014200040F0807007494862704701460020054A35
:1014300092680A400AB1012000E00020704701498B
:1014400088727047001002400000FFF8FFFFF6FEB0
:10145000000042428004424200127A0000093D002E
:10146000300000204000002010B50446FB488442B4
:1014700009D101218803FFF7ADFF00214FF480401F
:10148000FFF7A8FF32E0F648844209D10121480461
:10149000FFF7ADFF00214FF40030FFF7A8FF25E074
:1014A000F048844209D101218804FFF7A0FF002100
:1014B0004FF48020FFF79BFF18E0EB48844209D1EE
:1014C0000121C804FFF793FF00214FF40020FFF72C
:1014D0008EFF0BE0E548844208D101210805FFF7A3
:1014E00086FF00214FF48010FFF781FF10BD2DE92A
:1014F000F04786B005460E460024A24600BFA1462E
:101500000027B08900B100BF2F462C8A4CF6FF702F
:101510000440F08804432C82AC894EF6F31004405A
:10152000B08831890843718908430443AC81AC8A8F
:101530004FF6FF400440B0890443AC8201A8FFF796
:10154000C2FEC648874202D1DDF810A001E0DDF8F6
:101550000CA0A88900F4004040B10AEBCA0000EBDF
:101560000A1031684900B0FBF1F807E00AEBCA0045
:1015700000EB0A1031688900B0FBF1F86420B8FB79
:10158000F0F004012009642101FB1089A88900F40E
:10159000004040B1322000EBC900B0FBF1F000F098
:1015A0000700044308E0322000EB09106421B0FB7F
:1015B000F1F000F00F0004432C8106B0BDE8F08785
:1015C0004FF41651016000218180C18001810C21FE
:1015D000418100218181704710B502460020108AA8
:1015E0004FF2FF0318400B884C8823438C88234319
:1015F000CC8823431843108210BD00210180418014
:101600008180C180704721B1828942F40052828179
:1016100004E082894DF6FF731A4082817047F0B56D
:101620000346002400260025002040F66A17B94230
:1016300000D100BF1846C1F3421401F01F06012774
:1016400007FA06F5012C01D10C3004E0022C01D17F
:10165000103000E014301AB107682F43076002E031
:101660000768AF430760F0BD1AB1838A0B438382DA
:1016700002E0838A8B4383827047028A4FF6F073BD
:101680001A400282028A0A430282704782894FF21C
:10169000FF731A40828182890A438281704721B197
:1016A000828942F00202828104E082894FF6FD7352
:1016B0001A4082817047028A4FF6DF731A40028215
:1016C000028A0A430282704721B1028A42F48042B0
:1016D000028204E0028A4BF6FF731A4002827047CE
:1016E000C1F308028280704701468888C0F3080071
:1016F0007047818941F0010181817047028BD2B22C
:101700000283028B42EA012202837047028B02F4B9
:101710007F420283028B0A430283704721B1828A8F
:1017200042F02002828204E0828A4FF6DF731A4080
:101730008282704721B1828A42F01002828204E0E4
:10174000828A4FF6EF731A408282704721B1828AF3
:1017500042F00802828204E0828A4FF6F7731A4050
:101760008282704721B1828942F40042828103E083
:101770008289C2F30E028281704721B1828A42F4CB
:101780000062828204E0828A4FF2FF731A408282F2
:101790007047828A4FF6FB731A408282828A0A431C
:1017A0008282704721B1828A42F00202828204E082
:1017B000828A4FF6FD731A408282704702460020EB
:1017C000B1F5007F00D100BF13880B400BB10120A1
:1017D00000E00020704701F40072B2F5007F00D1F4
:1017E00000BFCA430280704770B502460024002340
:1017F0000025002040F66A16B14200D100BFC1F3B7
:10180000421501F01F03012606FA03F3012D02D150
:101810009689334006E0022D02D1168A334001E05A
:10182000968A33400C12012606FA04F416883440D6
:1018300013B10CB1012000E0002070BD10B50022F2
:10184000002340F66A14A14200D100BF0A1201240D
:101850009440A3B2DC43048010BD00000038014076
:101860000044004000480040004C00400050004050
:1018700010B50446FE48844208D10121C014FFF788
:10188000A9FD0021E014FFF7A5FDC4E0B4F1804FED
:1018900008D101210846FFF7AAFD00210120FFF72A
:1018A000A6FDB8E0F348844208D101210220FFF7E9
:1018B0009EFD00210220FFF79AFDACE0EE48844235
:1018C00008D101210420FFF792FD00210420FFF739
:1018D0008EFDA0E0E948844208D101210820FFF7ED
:1018E00086FD00210820FFF782FD94E0E448844251
:1018F00008D101211020FFF77AFD00211020FFF709
:1019000076FD88E0DF48844208D101212020FFF7DE
:101910006EFD00212020FFF76AFD7CE0DA4884425A
:1019200008D101214014FFF755FD00216014FFF795
:1019300051FD70E0D548844209D10121C804FFF768
:1019400049FD00214FF40020FFF744FD63E0D0483B
:10195000844209D101210805FFF73CFD00214FF425
:101960008010FFF737FD56E0CA48844209D10121B3
:101970004805FFF72FFD00214FF40010FFF72AFD67
:1019800049E0C548844208D101214020FFF72FFDDE
:1019900000214020FFF72BFD3DE0C048844208D1E4
:1019A00001218020FFF723FD00218020FFF71FFD8C
:1019B00031E0BB48844208D101218015FFF717FDB3
:1019C0000021A015FFF713FD25E0B648844209D198
:1019D00001210804FFF7FEFC00214FF48030FFF7DF
:1019E000F9FC18E0B048844209D101214804FFF70E
:1019F000F1FC00214FF40030FFF7ECFC0BE0AB48AA
:101A0000844208D101218804FFF7E4FC00214FF44F
:101A10008020FFF7DFFC10BD00220288944B984223
:101A20000ED0994B98420BD0B0F1804F08D0914B1B
:101A3000984205D0904B984202D0904B984204D1E6
:101A40004FF68F731A404B881A438D4B984207D03C
:101A50008C4B984204D04FF6FF431A40CB881A4370
:101A600002808B8883850B880385814B98420BD03D
:101A7000854B984208D08B4B984205D08A4B9842B0
:101A800002D08A4B984201D10B7A038601238382CC
:101A9000704770B5002400220023058C4FF6FE76B7
:101AA00035400584028C8388048B4FF68F752C405B
:101AB000B51E2C400D882C43751E2A400D892A43E3
:101AC0004D882A436A4DA8420BD06F4DA84208D0DA
:101AD000744DA84205D0744DA84202D0734DA8425F
:101AE00013D14FF6F7752A404D892A434FF6FB75FF
:101AF0002A408D882A434FF6FF652B404FF6FF554D
:101B00002B408D892B43CD892B4383800483CD8843
:101B10008586028470BD70B5002400220023058CE8
:101B20004FF6EF7635400584028C8388048B48F6A7
:101B3000FF752C404FF6FF452C400D884FF6FF7681
:101B400006EA05252C434FF6DF752A400D8906EA83
:101B500005152A434D8806EA05152A43444DA84237
:101B600002D0494DA8421DD14FF67F752A404D89BC
:101B70004FF6FF7606EA05152A434FF6BF752A4051
:101B80008D8806EA05152A434FF6FF352B404FF2A4
:101B9000FF752B408D8906EA85052B43CD8906EA22
:101BA00085052B4383800483CD880587028470BD1F
:101BB00070B5002400220023058C4FF6FF663540E7
:101BC0000584028C8388848B4FF68F752C404FF6EA
:101BD000FC752C400D882C434FF6FF552A400D898B
:101BE0004FF6FF7606EA05252A434D8806EA0525C5
:101BF0002A431F4DA84202D0234DA8421DD14FF2C7
:101C0000FF752A404D894FF6FF7606EA05252A43DF
:101C10004FF6FF352A408D8806EA05252A434EF601
:101C2000FF752B404DF6FF752B408D8906EA051593
:101C30002B43CD8906EA05152B4383808483CD8809
:101C40008587028470BD70B5002200230024058CB6
:101C50004EF6FF7635400584038C8488828B48F6E7
:101C6000FF752A404FF6FF452A400D8820E000000E
:101C7000002C01400004004000080040000C00401F
:101C8000001000400014004000340140004C0140AE
:101C9000005001400054014000180040001C00406A
:101CA0000020004000400140004401400048014045
:101CB0004FF6FF7606EA05252A434DF6FF752B40C1
:101CC0000D8906EA05352B434D8806EA05352B4379
:101CD000FA4DA84202D0FA4DA84208D14BF6FF7542
:101CE0002C408D894FF6FF7606EA85152C438480BB
:101CF0008283CD88A0F84050038470BD828B4FF260
:101D0000FF331A408283828B4FF6FF7303EA01236D
:101D10001A4382837047F0B50C4615460022002115
:101D20000026078C4EF6FF7C07EA0C070784828B9F
:101D3000018C4FF6FF7707EA043640F6FF473A403A
:101D40004FF6FF7707EA05273A434FF6FF7707EA92
:101D500003373A43D94FB8420ED0D94FB8420BD0CF
:101D6000B0F1804F08D0D74FB84205D0D64FB84217
:101D700002D0D64FB84206D14DF6FF77394046F42F
:101D80008057394305E047F6FF57394044F4805700
:101D9000394382830184F0BD828B4FF6F3731A407E
:101DA0008283828B0A4382837047F0B50C461546C6
:101DB000002200210026078C4FF6FF6C07EA0C0773
:101DC0000784828B018C4FF6FF7707EA04264FF6D3
:101DD0000C773A404FF6FF7707EA03172F433A4351
:101DE000B64FB8420ED0B64FB8420BD0B0F1804FCC
:101DF00008D0B44FB84205D0B34FB84202D0B34F69
:101E0000B84206D14FF6FF57394046F48077394340
:101E100005E04FF2FF57394044F48077394382831D
:101E20000184F0BD028B4FF2FF331A400283028B14
:101E30004FF6FF7303EA01231A4302837047F0B59C
:101E40000C461546002200210026078C4FF6EF7C39
:101E500007EA0C070784028B018C4FF6FF7707EA2D
:101E6000041640F6FF473A404FF6FF7707EA03377C
:101E70003A434FF6FF7707EA05273A438F4FB842B8
:101E80000ED08F4FB8420BD0B0F1804F08D08D4F9D
:101E9000B84205D08C4FB84202D08C4FB84206D120
:101EA0004FF6DF77394046F01007394305E04FF62B
:101EB0005F77394044F01007394302830184F0BD55
:101EC000028B4FF6F3731A400283028B0A4302839C
:101ED0007047F0B50C46154600220021068C4FF6DF
:101EE000FE773E400684028B018C4FF60C76324022
:101EF0007E1C06EA03162E433243704EB0420ED0CB
:101F00006F4EB0420BD0B0F1804F08D06D4EB04252
:101F100005D06D4EB04202D06C4EB04206D14FF6A5
:101F2000FD76314044F00106314305E04FF6F57689
:101F3000314044F00106314302830184F0BD70B5A5
:101F400005460C465D4885420ED05D4885420BD063
:101F5000B5F1804F08D05B48854205D05A4885428C
:101F600002D05A48854200D100E000BF208850B915
:101F70002389A28861882846FFF7ABFFE1882846BD
:101F8000FFF79EFF25E0208804280AD12389A28834
:101F900061882846FFF753FFE1882846FFF742FF94
:101FA00017E0208808280AD12389A288618828465A
:101FB000FFF7FBFEE1882846FFF7EEFE09E02389E4
:101FC000A28861882846FFF7A6FEE1882846FFF729
:101FD00095FE70BD2DE9F04105460C46002601270F
:101FE000608808B9022600E00026A088012801D1F7
:101FF000022700E001272088A0B92389A2886188F0
:102000002846FFF766FFE1882846FFF759FF238936
:102010003A4631462846FFF712FFE1882846FFF787
:1020200001FF13E02389A28861882846FFF707FF94
:10203000E1882846FFF7F6FE23893A4631462846CE
:10204000FFF747FFE1882846FFF73AFFBDE8F08138
:102050000A884B881A438B881A43CB881A430B890A
:102060001A434B891A438B891A43A0F844207047BE
:102070004FF6FF71818000210180C1804180017293
:1020800070470021018041808180C18001814181B0
:102090008181C181704700210180418001218180BF
:1020A0000021C18001817047002101804180818031
:1020B000C18001814181818170470000002C014075
:1020C000003401400004004000080040000C0040C3
:1020D00021B1028842F00102028004E002884FF63A
:1020E000FE731A400280704731B1B0F8442042F4C8
:1020F0000042A0F8442005E0B0F84420C2F30E02EC
:10210000A0F8442070471AB183890B43838102E011
:1021100083898B43838170478182704741EA020340
:10212000A0F8483070471AB183890B43838102E0DD
:1021300083898B438381704701894FF6F872114080
:10214000018170470A46002101894FF68F731940BB
:1021500011430181704730B504460D46294620469B
:10216000FFF7F0FF208940F00700208130BD2DE906
:10217000F04104460D4616461F46602D06D13B46EB
:10218000012231462046FFF75AFE05E03B46012278
:1021900031462046FFF79DFE29462046FFF7D2FF35
:1021A000208940F007002081BDE8F08130B50C4661
:1021B00000210189C9B24FF6FF7505EA03251543D1
:1021C00025432943018130BD2DE9F04105460E46E6
:1021D00017469846002443463A4631462846FFF7BC
:1021E000E5FF2C894FF6F870044044F007044FF6E1
:1021F0008F70044044F070042C81BDE8F081F0B58C
:1022000004460D4616461F463B46324629462046A2
:10221000FFF7CCFF208940F480402081F0BD01858C
:10222000828270470A46002101884FF68F73194059
:10223000114301807047F0B50C4615461E4600213B
:10224000002200230189028B038C4FF6F877394076
:1022500021434FF6FC473A4040F201173A434FF60C
:10226000DD773B404FF6FF7707EA06172F433B43E6
:10227000018102830384F0BD0A460021018B4FF6E1
:102280008F7319401143018370470A460021018B67
:1022900048F6FF7319404FF6FF7303EA0223194310
:1022A000018370470A460021818B4FF68F731940D6
:1022B0001143818370470A460021818B48F6FF73E2
:1022C00019404FF6FF7303EA0223194381837047D5
:1022D00021B1028842F08002028004E002884FF6B9
:1022E0007F731A400280704721B1828842F0040255
:1022F000828004E082884FF6FB731A408280704728
:1023000021B1828842F00802828004E082884FF680
:10231000F7731A408280704721B1828842F001022F
:10232000828004E082884FF6FE731A4082807047F4
:102330000A460021018B4FF6F773194011430183C0
:1023400070470A460021018B4FF2FF7319404FF688
:10235000FF7303EA02231943018370470A460021F1
:10236000818B4FF6F77319401143818370470A46FA
:102370000021818B4FF2FF7319404FF6FF7303EA80
:1023800002231943818370470A460021018B4FF6CF
:10239000FB7319401143018370470A460021018BEA
:1023A0004FF6FF3319404FF6FF7303EA0223194338
:1023B000018370470A460021818B4FF6FB73194059
:1023C0001143818370470A460021818B4FF6FF330A
:1023D00019404FF6FF7303EA0223194381837047C4
:1023E0000A460021018B4FF67F7319401143018388
:1023F00070470A460021018BC1F30E014FF6FF73AF
:1024000003EA02231943018370470A460021818BA6
:102410004FF67F7319401143818370470A460021AC
:10242000818BC1F30E014FF6FF7303EA02231943B8
:10243000818370470A460021018C4FF6FD731940D5
:102440001143018470470A460021018C4FF6F7734F
:1024500019401143018470470A460021018C4FF650
:10246000DF7319404FF6FF7303EA02131943018427
:1024700070470A460021018C4FF67F7319404FF6D2
:10248000FF7303EA02131943018470470A460021CF
:10249000018C4FF6FF5319404FF6FF7303EA0223F6
:1024A0001943018470470A460021018C4FF2FF73E3
:1024B00019404FF6FF7303EA022319430184704762
:1024C0000A460021018C4DF6FF7319404FF6FF7349
:1024D00003EA023319430184704730B50023012415
:1024E0008C40A3B2048C9C430484048C02FA01F552
:1024F000ADB22C43048430BD30B5002304248C409D
:10250000A3B2048C9C430484048C02FA01F5ADB29E
:102510002C43048430BD70B50346002000241846C7
:10252000183001258D40ACB21D8CA5431D8409B126
:10253000082909D100EB6100056825F070050560E8
:102540000568154305600EE00D1FC5F34E052844D0
:10255000056825F4E045056005684FF6FF7606EA54
:1025600002263543056070BD21B1028842F00202A7
:10257000028004E002884FF6FD731A400280704723
:1025800021B1028842F00402028004E002884FF682
:10259000FB731A400280704721B1828842F08002AA
:1025A000828004E082884FF67F731A4082807047F1
:1025B00002884FF6F7731A40028002880A430280AD
:1025C000704782884FF68F731A40828082880A4350
:1025D0008280704702894FF6F8731A40028102899F
:1025E0000A430281704702894FF67F731A400281C5
:1025F00002890A4302817047818470478185704750
:10260000818670470187704781877047A0F8401026
:10261000704702884FF6FF431A40028002880A433F
:10262000028070470146888E70470146088F7047C8
:102630000146888F70470146B1F840007047014657
:10264000888C70470146088D704702460020138A27
:102650000B400BB1012000E000207047CA4302820A
:10266000704730B50246002000230024158A05EA91
:102670000103958905EA010413B10CB1012000E0C2
:10268000002030BDCA4302827047000010B50446E6
:10269000FA48844208D101214015FEF79BFE002133
:1026A0006015FEF797FE17E0F548844208D1012136
:1026B0000015FEF78FFE00212015FEF78BFE0BE0C4
:1026C000F048844208D10121C803FEF783FE0021AF
:1026D0004FF40040FEF77EFE10BD30B502460020EC
:1026E00000235068E84C20400D790C6844EA05242A
:1026F000204350609068E54C2040D1E902542C43BF
:102700004D7944EA450420439060D06A20F470007B
:102710000C7C641EE4B2234340EA0350D06230BD17
:1027200000210160017141718160C160012101746A
:10273000704721B1826842F00102826003E0826842
:1027400022F001028260704721B1826842F48072F7
:10275000826003E0826822F480728260704710B564
:102760000023CBB21AB144681C43446002E04468C1
:102770009C43446010BD816841F00801816070474E
:10278000014600208A6802F008020AB1012000E038
:1027900000207047816841F0040181607047014664
:1027A00000208A6802F004020AB1012000E0002043
:1027B000704721B1826842F4A002826003E082681F
:1027C00022F4A00282607047014600208A6802F469
:1027D00080020AB1012000E00020704710B50A46CF
:1027E00000210023416821F46041531E41EA433136
:1027F000416010BD21B1426842F40062426003E0D2
:10280000426822F4006242607047F0B504460D460B
:1028100000200021092D11DDE068A5F10A0606EB74
:102820004607072606FA07F18843A5F10A0606EBD4
:10283000460603FA06F10843E0600CE0206905EB68
:102840004507072606FA07F1884305EB450603FA14
:1028500006F108432061072A0FDA606B561E06EB6B
:1028600086071F2606FA07F18843561E06EB8606E2
:1028700005FA06F10843606322E00D2A0FDA206BA7
:10288000D61F06EB86071F2606FA07F18843D61FD8
:1028900006EB860605FA06F10843206310E0E06ABD
:1028A000A2F10D0606EB86071F2606FA07F18843FC
:1028B000A2F10D0606EB860605FA06F10843E06272
:1028C000F0BD21B1826842F48012826003E0826828
:1028D00022F48012826070470146C86C80B2704753
:1028E00066484C300068704721B1426842F480620B
:1028F000426003E0426822F480624260704721B186
:10290000426842F48052426003E0426822F48052FE
:10291000426070470A460021816821F4E04111437A
:102920008160704721B1826842F40042826003E016
:10293000826822F400428260704721B1826842F4CA
:102940000212826003E0826822F402128260704701
:10295000014600208A6802F400120AB1012000E05A
:1029600000207047F0B504461546002000220026DE
:10297000092911DDE068A1F10A0707EB470C0727D9
:1029800007FA0CF29043A1F10A0707EB470703FA95
:1029900007F21043E0600CE0206901EB410C0727CF
:1029A00007FA0CF2904301EB410703FA07F21043D8
:1029B0002061A06BC0F30156EF1C06F1010CA7EBE0
:1029C0000C0707EB870C1F2707FA0CF29043EF1C4C
:1029D00006F1010CA7EB0C0707EB870701FA07F2DA
:1029E0001043A063F0BD10B50A4600210023816B9F
:1029F00021F44011531E41EA0351816310BD08B513
:102A0000002300930090009B0B440093009B1A60EE
:102A100008BD08B5024600200090009201F1280090
:102A2000009B184400900098006880B208BD0A46D8
:102A300000214168164B19401143416070474162C3
:102A4000826270470A460021416821F01F0111434C
:102A50004160704740B109490831096841F40001FB
:102A6000064A0832116007E004490831096821F478
:102A70000001024A08321160704700000024014042
:102A800000280140003C0140FFFEF0FFFDF7F1FF90
:102A9000FFFD3FFF0246002013680B400BB10120F1
:102AA00000E000207047CA430260704770B50246DC
:102AB0000020002300240B125568CEB205EA06045C
:102AC00015681D4015B10CB1012000E0002070BD5B
:102AD00000220A12D34303607047000010B50121A1
:102AE0004807FEF784FC00214FF00050FEF77FFC02
:102AF00010BD30B5002200235A4C226840F6FE7407
:102B00008440A243D1E900452C438D682C43CD6815
:102B100044EA050303FA00F42243524C226030BD1C
:102B20000021016041608160C160704739B14D4A48
:102B30001268012383401A434A4B1A6006E0494A4F
:102B40001268012383409A43464B1A60704741B193
:102B5000444A12684FF4805383401A43414B1A6031
:102B600007E0404A12684FF4805383409A433D4B3C
:102B70001A60704710B551B13A4A121D1268040923
:102B80000123A3401A43374B1B1D1A6009E0354A45
:102B9000121D126804090123A3409A43314B1B1DE7
:102BA0001A6010BD40B12F49091D096841F00301A9
:102BB0002C4A121D116007E02A49091D096821F0FD
:102BC0000301284A121D1160704710B53AB1254B18
:102BD0001B6801FA00F42343224C236006E0214BDA
:102BE0001B6801FA00F4A3431E4C236010BD08B516
:102BF000002200921B4A009200F10802009B1A4436
:102C00000092009A116008BD08B500220092154A92
:102C1000009200F11402009B1A440092009A116085
:102C200008BD30B500240023082802D142EA01245F
:102C300001E042EA01440B4B00F120052B441C60EB
:102C400030BD08B5014600200090064800902C20B9
:102C500000EB9100009A104400900098006880B248
:102C600008BD00000074004001684FF6FE7211407C
:102C700001600021016041608160C1608D4988422E
:102C800008D18C490839496841F00F01894A083A4E
:102C900051608AE087491431884208D18549083952
:102CA000496841F0F001834A083A51607DE081496A
:102CB0002831884208D17F490839496841F4706158
:102CC0007C4A083A516070E07A493C31884208D128
:102CD00078490839496841F47041764A083A5160A8
:102CE00063E074495031884208D172490839496813
:102CF00041F470216F4A083A516056E06D496431E1
:102D0000884208D16B490839496841F47001694A21
:102D1000083A516049E067497831884208D16549ED
:102D20000839496841F07061624A083A51603CE0F4
:102D30006149884206D1011F096841F00F01021F55
:102D4000116032E05C491431884208D15A49091FA8
:102D5000096841F0F001584A121F116025E05649F8
:102D60002831884208D15449091F096841F470612B
:102D7000514A121F116018E04F493C31884208D176
:102D80004D49091F096841F470414B4A121F1160F7
:102D90000BE049495031884207D14749091F09686A
:102DA00041F47021444A121F1160704710B500228F
:102DB000026847F6F0739A430C6A8B6823430C69E8
:102DC00023434C6923438C692343CC6923434C6AD6
:102DD00023438C6A23431A430260CB6843600B6829
:102DE00083604B68C36010BD002101604160816059
:102DF000C160016141618161C161016241628162C1
:102E0000704721B1026842F00102026004E00268EA
:102E10004FF6FE731A40026070471AB103680B4305
:102E2000036002E003688B430360704741607047B2
:102E30000146486880B2704701460020002201F038
:102E400080531BB11C4B083B1A6802E0194B083B2E
:102E50001A6802EA01030BB1012000E0002070476C
:102E600000F0805119B11449091F086002E01149AE
:102E700008394860704701460020002201F0805365
:102E80001BB10D4B083B1A6802E00A4B083B1A685D
:102E900002EA01030BB1012000E00020704700F0BE
:102EA000805119B10449091F086002E0014908393D
:102EB00048607047080002400804024010B5012134
:102EC0000807FEF794FA00214FF08050FEF78FFAC2
:102ED00010BD2A49086270472849086170470146B9
:102EE0000020274A106820F0E00008431060704777
:102EF0002249A0310860704710B502460020204BDF
:102F0000186820F00300104318601E4B1B6843F044
:102F100004031C4C2360012901D130BF00E020BF15
:102F2000184B1B6823F00403164C236010BD144893
:102F3000006840F00400124908600846006840F04C
:102F4000020008600F48006840F004000D49086066
:102F500000BF00BF30BF704701460020084A5268DA
:102F60000A400AB1012000E00020704704490968C6
:102F700041EA8001024A11607047000000000E42E1
:102F80000070004010ED00E0002044490860091D79
:102F90000860091D0860091D086041483F49143157
:102FA0000860704700213D498279002A3AD00A46DC
:102FB000126803689A430B461A600A1D1268036878
:102FC0009A430B1D1A60027911440A6803681A4378
:102FD0000A60324A0832126803689A432F4B08335A
:102FE0001A601A1D126803689A432C4B0C331A603E
:102FF0004279102A0ED11A1F126803681A43274B10
:1030000008331A601A1D126803681A43234B0C33E5
:103010001A600DE02149427911440A6803681A4395
:103020000A6005E0027911440A6803689A430A605D
:1030300070470021016001710C21417100218171F3
:1030400070471649103109680143144A1032116063
:10305000704701460020114A143212680A400AB132
:10306000012000E0002070470C49143108607047CF
:10307000014600200022094B1B6803EA0102074BAE
:1030800014331B680B4013B10AB1012000E000208B
:103090007047024914310860704700000004014085
:1030A000FFFF0F0010B500F03FFC10BD10B500F0A1
:1030B00080FC10BD10B50446204602F08DFB10BD0B
:1030C00010B500F0DEFB00F022FD00F0F5FB10BDB6
:1030D00010B56FF00400FDF728FE3548006835494B
:1030E000B0FBF1F034490870314800683149B0FB59
:1030F000F1F441F2883044430520304908804FF014
:10310000E020006940F002004FF0E021086108462D
:103110004461006940F00100086110BD2DE9F047ED
:10312000074600264FF0E020D0F81490224800789F
:1031300007FB00F800BFFFF7B5FF4FF0E0208569FF
:1031400011E04FF0E0208469AC420CD0AC4202D2D6
:10315000281B064403E0A9EB040028440644254646
:10316000464500D300E0ECE700BFFFF79FFFBDE856
:10317000F08770B5044612480078012811D10F4835
:103180000088844206DB0D48008894FBF0F5284651
:1031900002F022FB0948008894FBF0F100FB11408B
:1031A00084B24FF47A7104FB01F0FFF7B7FF70BDF2
:1031B0001C00002000127A0044000020460000207D
:1031C0006E00002010B54FF4C060FDF75FFD10BD2C
:1031D0000EB501210807FEF7F0F8E020FFF77FFEAB
:1031E0000120FFF779FE4FF4C060FDF74FFD01208D
:1031F0008DF8000000208DF801008DF802000120FC
:103200008DF803006846FDF746FD01A8FFF711FFA2
:103210004FF48030019000208DF8080008208DF8D0
:10322000090001208DF80A0001A8FFF7BBFE0EBDC2
:1032300008B501213C20FEF7B3F801210846FEF74E
:10324000AFF801214A48FDF7C0FE4020ADF800006C
:1032500018208DF8030003208DF8020069464548C8
:10326000FDF7E2FD4FF4D070ADF8000010208DF8AE
:10327000030003208DF8020069463E48FDF7D4FDA7
:1032800041F20800ADF8000069463B48FDF7CCFD6F
:1032900042F24F00ADF8000069463848FDF7C4FD22
:1032A0000420ADF8000069463548FDF7BDFD48F241
:1032B0000300ADF8000048208DF8030069462D4852
:1032C000FDF7B2FD4FF48050ADF8000048208DF8B6
:1032D000030069462948FDF7A7FD01212748FDF7AE
:1032E00050FE4FF400512548FDF74BFE4FF480513E
:1032F0002148FDF746FE40211E48FDF742FE802191
:103300001C48FDF740FE4FF480711A48FDF739FE66
:1033100020211848FDF737FE08211848FDF731FE37
:1033200004211648FDF72DFE02211448FDF729FE61
:1033300040211248FDF727FE08210F48FDF723FE24
:1033400004210F48FDF71FFE08BD10B540210948B4
:10335000FDF717FE80210748FDF713FE4FF480713B
:103360000448FDF70EFE4FF48030FFF792FE10BDCB
:103370000002300000080140000C01400010014034
:103380000014014008B501210846FDF7FCFF0121AA
:103390004FF40670FEF704F80320ADF8000000209B
:1033A0008DF8030069466448FDF73EFD3020ADF816
:1033B000000000208DF8030069466048FDF734FDE9
:1033C00008BD00B591B05E48FFF74EFC5D48069021
:1033D0005D480790002008900C20099000200A907A
:1033E00080200B9040000C9080000D9020200E90CB
:1033F00000200F90109006A95148FFF7D7FC01213B
:103400004F48FFF7FEFC0020019001208DF80800D6
:103410008DF809004FF460200390002004900420F0
:103420008DF8140001A947484C38FFF756F94FF4BE
:103430004040FDF719FF07230122082141484C387D
:10344000FFF7E3F90723022209213E484C38FFF732
:10345000DCF9072303220F213A484C38FFF7D5F94E
:10346000072304220E2137484C38FFF7CEF90121FB
:1034700034484C38FFF768F9012132484C38FFF7DF
:1034800058F930484C38FFF776F900BF2D484C38D2
:10349000FFF776F90028F9D12A484C38FFF77AF976
:1034A00000BF28484C38FFF77AF90028F9D10121EC
:1034B00024484C38FFF77DF911B000BD10B5FFF777
:1034C00061FFFFF77EFF10BD2DE9FE4F04460F465A
:1034D000154600261C48103030F8140002901A4897
:1034E000083030F814000190174830F814000090AC
:1034F000DDE901100844009908440321B0FBF1F60E
:1035000029464FF07E5006F0D1FA8346394606F040
:10351000CFF98146304606F083F98346294606F006
:10352000C7F98246494606F013F8804606F040F98E
:103530000646B0B2BDE8FE8F000C0140001001400D
:10354000080002404C2401402014002000B585B042
:1035500001210420FDF724FF01214807FDF72DFF7D
:103560001020ADF8100000208DF8130003208DF816
:10357000120004A92048FDF757FC10211E48FDF752
:1035800000FD002000900190029003906946FFF733
:10359000B0FA01210020FFF7C9FA00210846FFF721
:1035A00026FB05B000BD2DE9F0470446204606F095
:1035B00037F981461149484606F038F881464FF000
:1035C0008B41484606F074F9824605F095FF0746A0
:1035D0004FF066320A4B05F0EFFB054605F0FEFAA8
:1035E0008146484606F0E4F885B229460020FFF7F8
:1035F000FEFABDE8F08700000008014000007A44B0
:1036000066660A407CB5002514E06946284601F04C
:10361000D9FF064666B9F74850F8254044B1012C59
:1036200006D0D4E9020100EB810060640198A06437
:10363000681CC5B23F2DE8D97CBD002400BF02E064
:10364000282002F0C9F8EC4800780028F8D0EB48B0
:1036500000686421B0FBF1F0E849086008460068A2
:1036600028B90020E6490870FF2001F0EDFF00BFF7
:1036700002F0E2F90446E3480068E34908600020EC
:10368000E0490860204602F0DBF9DF480068DB49CA
:103690000968B0FBF1F0C0F16400D949087002F08C
:1036A00078F9FFF7AFFF142002F096F8E0E700B5D5
:1036B00087B0032000218022D44BCDE90132CDE92F
:1036C00003104FF6FE703E23D14A0090AFF29500F2
:1036D00001F091FD06AACFA13E2001F0F5FE07B052
:1036E00000BD002400BF00BF02F0A6F90446C54893
:1036F0000068401CC3490860204602F0A1F902F0AE
:1037000047F9F1E700B587B0032000218022C54BBF
:10371000CDE90132CDE903104FF6FF703F23C24AD5
:103720000090AFF2410001F066FD06AABFA13F2064
:1037300001F0CAFE07B000BD04E0002200F8012B32
:103740004A1E91B20029F8D1704770B5C821BB4814
:10375000FFF7F2FF00230FE0581C85B203EB830054
:10376000B64901EB800405EB850001EB80060020E3
:1037700020706660581C83B2092BEDD303EB8300E5
:10378000AE4901EB80040020207060600846AC491F
:10379000086070BD70B54FF47C71AA48FFF7CCFF8C
:1037A0004FF480719348FFF7C7FF002413E0601CBB
:1037B000C5B2C4EBC40000EB4000A24901EB80039A
:1037C000C5EBC50000EB400001EB80065E619EA0EA
:1037D000D864601CC4B20B2CE9D3C4EBC40000EB6A
:1037E0004000984901EB80030020586196A0D864FE
:1037F00000209649086093489549086070BD0021F3
:10380000944A1170002004E00021934A1154411C95
:10381000C8B20828F8D30021904A1170904A11705C
:10382000904A1160904A1160704700208F490860EB
:103830008F4908708F4908708F4908708F49087048
:103840008F4908606F4908606F4908606B490860DC
:1038500069490870704710B502F096F8FFF7E5FF68
:10386000FFF7CDFFFFF796FFFFF76FFF00F0EAFECF
:1038700001F0E1F9FFF746FFFFF719FF02F085F8C5
:1038800010BD7E480078012808D179480078FF28CB
:1038900004D277480078401C754908707047794910
:1038A0006C4A1278885C6C49095C764A515C01EB81
:1038B000C0016B4A1170704710B500246F48007842
:1038C000012830D102F0B8F804466948007820B1E8
:1038D00067480078401E6649087065480078F8B966
:1038E00064480078E0B9FFF7DAFF42485C4909789C
:1038F00050F821005B490860594800785749097819
:1039000088420DD057480068806B401C55490968B3
:1039100088635B480068401C5949086002F0ABF8B6
:10392000204602F08DF810BD10B5002453480078F1
:10393000012811D102F080F804464D48007840B9C2
:103940004C480078FF2804D24A480078401C494976
:103950000870204602F074F810BD10B5002402F083
:103960006BF8044642480078F8B942480078E0B95C
:10397000FFF795FF1F483A49097850F82100394967
:103980000860374800783549097888420DD03548B5
:103990000068806B401C33490968886338480068B8
:1039A000401C3749086002F05FF8204602F048F8F2
:1039B00010BD10B500243148007801286FD102F005
:1039C0003BF804462B48007880B12A480078401E16
:1039D000284908700846007848B92548007838B961
:1039E000204602F02DF8FFF7B8FF58E054E04FE012
:1039F0004AE000005019002060000020580000201C
:103A000054000020700000205C00002050150020B1
:103A10004C17002075432F4F532D49492053746193
:103A200074000000501700204C19002075432F4FE0
:103A3000532D49492049646C65000000381400206A
:103A40004C000020501A00203F00000080000020A1
:103A50007800002065000020660000206300002040
:103A6000640000207C000020740000208C000020F6
:103A700061000020620000206F0000206E00002026
:103A800048000020869C0008204601F0D9FF06E08F
:103A9000204601F0D5FF02E0204601F0D1FF10BD25
:103AA00010B5EB48007890B9FFF7F9FEE9480078C7
:103AB000E9490870E948E749097850F82100E849E0
:103AC000086008460068E749086001F0BCFF10BDC7
:103AD00010B50024022001F07FFE01F0ADFF044686
:103AE0000020E1490860204601F0AAFF142001F0FF
:103AF00073FE01F0A1FF0446DB480068DB49086063
:103B00000120DB490870204601F09AFF10BD70B516
:103B1000002601F08EFF01F08FFF0646D5480068B1
:103B2000401CD4490860304601F08AFFC84800783C
:103B3000012853D1D048007820B1012804D00228B0
:103B400009D103E001250BE0002509E00125012052
:103B5000C949087004E001250020C749087000BF6A
:103B600000BF05B970BDC548046833E001F064FFCB
:103B70000646E06A50B3E06A401EE062E06A28BB95
:103B800094F8300000F0370040B114F8300F00F026
:103B9000C800207001206070303C02E0002084F8F2
:103BA000310094F8300000F0080078B93434A0787F
:103BB000B34909780843B24908702078B149085CD4
:103BC0006178084314F83419AE4A50546469304699
:103BD00001F036FF94F832003F28C7D100BFC1E79B
:103BE00040F223107047704710B590F8342001F16F
:103BF0000B039B5C90F83540A34301F10B04A354E5
:103C000023469B5C23B98B7A90F83640A3438B7292
:103C100010BD2DE9F04F05460F4690469946A87A0B
:103C200099490E5C05F10B00805D11F800B00BEBBB
:103C3000C60000F0FF0A894850F82A4000202034CE
:103C4000E0602760207C20EA0800207484F811904E
:103C5000207C203C00F0080068B994F836008849C0
:103C600009780843864908708648805D94F83510C5
:103C700008438449885529462046FFF7B5FF50463A
:103C8000BDE8F08F10B5774A1268D061754A1268A6
:103C900092F8343000F10B02D25C724B1B6893F83F
:103CA00035301A436F4B1B6893F8344000F10B0317
:103CB0001A55827A6B4B1B6893F836301A4382721E
:103CC000684A126892F834106E4A525C654B1B6861
:103CD00093F835309A436B4B5A541A46525C42B9AA
:103CE000604A126892F83630654A12789A43644BFB
:103CF0001A7010BD014600228A72002005E00023E0
:103D000001F10B021354421CD0B20828F7D37047BC
:103D100005E011F8013B00F8013B531E9AB2002A5E
:103D2000F7D170470146002002E0491C421CD0B286
:103D30000A78002AF9D170472DE9F84F05460F4659
:103D400090469946DDE90AAB0020009001F074FE30
:103D500000904E480468002C75D0183454F8040CB8
:103D60004A490860009801F06BFE44F8187CA5767B
:103D7000002020766076606144F814BC44F80CACF6
:103D800044F8108C0C9824F8080C24F8069C0020A9
:103D9000E077E810207705F00700E076217F01202A
:103DA0008840A077E17E0120884060770020606035
:103DB000E060A0602062A0626062E0622063AFF217
:103DC00078306063183C002606E0002104F15000C2
:103DD00040F82610701CC6B2002EF6D0204601F026
:103DE00027FE204601F0D2FD01F026FE00901B4880
:103DF00040F825402148006860610020A0611F480C
:103E0000006810B11D48006884611C4804603434A7
:103E1000A0781B4909780843194908702078194986
:103E2000085C6178084314F83419164A505418484D
:103E30000078401C16490870009801F001FE00202F
:103E4000BDE8F88FFFE7009801F0FAFD4220F7E7A0
:103E50006E00002064000020630000205019002044
:103E60007C0000207400002070000020580000201A
:103E7000600000208C0000208400002080000020D2
:103E80006500002066000020869C00087800002065
:103E90006F0000202DE9F05F04460F4691461E4654
:103EA0004FF0000B2078052804D00120307000204E
:103EB000BDE8F09F09F0800ABAF1000F04D029F0A4
:103EC00080094FF0010801E04FF000080020307039
:103ED00001F0B2FD8346B9F1000F2CD0B9F1010F0A
:103EE0003BD0B9F1020F03D0B9F1030F46D111E075
:103EF000208900EA0705BD4206D1B8F1010F05D1BE
:103F00002089A843208101E070203070584601F0DC
:103F100097FD3AE0208900EA070535B1B8F1010FB5
:103F200005D12089A843208101E0702030705846D7
:103F300001F086FD29E0208927EA0005BD4206D16F
:103F4000B8F1010F05D120892843208101E07020BC
:103F50003070584601F074FD17E0208927EA00050B
:103F600035B1B8F1010F05D120892843208101E046
:103F700070203070584601F063FD06E0584601F0AD
:103F80005FFD00256F20307000BF00BF28468FE71F
:103F90002DE9F04106460D460027FA48007820B189
:103FA000102028700020BDE8F08101F045FD074693
:103FB000F548046884B100684068F349086005204A
:103FC0002070268100206060F0A0E060384601F09B
:103FD00037FD0020287004E0384601F031FD7220E2
:103FE00028702046DFE730B501464A6808682AB9DC
:103FF000CC68606028B10025456002E0106000B127
:1040000042608B6800255D6230BDF0B506460F4604
:10401000B4680020283460602780207A00F0DF0038
:10402000207200206072207A283C88B93434A0784D
:10403000D74909780843D64908702078D549085CE3
:104040006178084314F83419D24A5054012500E02D
:1040500000253046FFF7C7FF2846F0BD2DE9F047A1
:104060000446894615464FF0000AC648007820B13C
:104070000F2028702046BDE8F0872078052803D05F
:10408000012028702046F6E701F0D6FC82466068E1
:1040900008B1012700E00027B9F1000F03D0B9F102
:1040A000010F3CD119E08FB9B8A0E060002020706A
:1040B000B5480068606000202081B3480460504625
:1040C00001F0BEFC00202870002605E0504601F0FB
:1040D000B7FC49202870264628E0D4F8048005E083
:1040E00000214046FFF791FFD8F80080B8F1000F9B
:1040F000F6D1A6A0E06000202070A34800686060B0
:1041000000202081A0480460504601F099FC012F56
:1041100001D1FFF722FC00202870002606E050465F
:1041200001F08EFC07202870264600BF00BF3046F5
:10413000A1E72DE9F04105460E46144600279148B7
:10414000007820B1112020700020BDE8F08101F03E
:1041500073FC07462878052806D0384601F070FC25
:10416000012020700020F0E7E86830603068FFF739
:10417000D9FD8046384601F063FC0020207040469F
:10418000E3E72DE9F04105460E46144600277D4839
:10419000007818B112202070BDE8F08101F04CFCCD
:1041A00007462878052805D0384601F049FC01204B
:1041B0002070F1E7EE60384601F042FC00202070EC
:1041C00000BFE9E7F0B51446059E734F3F6897F8C6
:1041D000307047F02007DFF8C0C1DCF800C08CF871
:1041E00030700027DFF8B0C1DCF800C08CF8317007
:1041F000694F3F68FE62684F3F6879620C828B743A
:10420000654F3F688F6047680F6000274F60C86048
:10421000456805B1696041605F4F3F6897F8342099
:104220005C4FBF5CDFF870C1DCF800C09CF835C0A3
:1042300027EA0C07DFF85CC10CF802706746BF5C28
:104240005FB9554F3F6897F836C0514F3F7827EA1E
:104250000C07DFF83CC18CF80070F0BD2DE9F04F81
:1042600089B005460F4691469A46129E002002905C
:104270004448007828B102203070002009B0BDE821
:10428000F08F4648007818B10D2030700020F5E717
:104290002878052803D0012030700020EEE709F0CF
:1042A000800BBBF1000F04D009F07F094FF001082B
:1042B00001E04FF0000801F0BFFB0290B9F1000FE0
:1042C0004AD0B9F1010F78D0B9F1020F03D0B9F19A
:1042D000030F71D120E0288900EA0704BC420FD106
:1042E000B8F1010F02D12889A04328812A4800682B
:1042F0000485029801F0A4FB002030702046BDE741
:104300004B463A4604A92846CDF800A0FFF75AFFCD
:10431000029801F095FB78E0288900EA07047CB157
:10432000B8F1010F02D12889A04328811A480068FA
:104330000485029801F084FB0020307020469DE740
:104340004B463A4604A92846CDF800A0FFF73AFFAD
:10435000029801F075FB58E0288927EA0004BC4266
:104360001ED1B8F1010F02D12889204328810A48C3
:1043700000680485029801F063FB0020307020463D
:104380007CE71AE061000020500000203F000000A0
:1043900065000020660000207400002062000020FC
:1043A0004B463A4604A92846CDF800A0FFF70AFF7D
:1043B000029801F045FB28E01FE0288927EA000465
:1043C0007CB1B8F1010F02D1288920432881B1487E
:1043D00000680485029801F033FB0020307020460D
:1043E0004CE74B463A4604A92846CDF800A0FFF713
:1043F000E9FE029801F024FB07E0029801F020FB9F
:1044000000246F203070204638E700BFFFF7A5FA80
:1044100001F012FB02909F48006890F8310020B331
:104420009C48006890F83100039000209949096881
:1044300081F8310004A8FFF7D6FD002095490968EE
:1044400081F83000029801F0FBFA0024039801285B
:1044500005D0022802D10E20307003E000BF0A20F0
:10446000307000BF00BF204608E78A480068048D0E
:10447000B8F1010F1ED1B9F1000F0ED0B9F1010F43
:104480000CD0B9F1020F03D0B9F1030F0AD100E04B
:1044900000BF2889A04328810BE000BF2889204362
:1044A000288106E0029801F0CBFA6F2030700020DE
:1044B000E4E600BF029801F0C3FA00203070204605
:1044C000DCE670B5002501F0B7FA054671480068D2
:1044D000048D284601F0B4FA204670BD2DE9FC5F3A
:1044E0000446894692461E46002000902078052802
:1044F00004D0012030700020BDE8FC9F01F09CFA40
:104500000090BAF1000F03D0BAF1010F0AD104E014
:10451000208920EA090020810BE0208940EA090077
:10452000208106E0009801F08BFA712030700020A5
:10453000E2E700BF4FF0000B656855E0A87C40B390
:10454000012838D0022802D0032844D111E0208964
:10455000298A00EA0107288AB84209D13946284643
:10456000FFF753FD8046B8F1010F01D14FF0010B69
:1045700038E02089298A00EA01074FB139462846E8
:10458000FFF743FD8046B8F1010F01D14FF0010B59
:1045900028E0288A218920EA0107288AB84209D11F
:1045A00039462846FFF731FD8046B8F1010F01D1A9
:1045B0004FF0010B16E0288A218920EA01074FB14C
:1045C00039462846FFF721FD8046B8F1010F01D199
:1045D0004FF0010B06E0009801F032FA6F203070C6
:1045E000002089E700BF2D68002DA7D1009801F0B9
:1045F00027FABBF1010F01D1FFF7AFF901F01CFA67
:10460000009020890190009801F01AFA0020307083
:10461000019871E72DE9F04104460D460027207806
:10462000052804D0012028700020BDE8F08101F0A9
:1046300003FA07462689384601F002FA002028705E
:104640003046F2E72DE9F04150211348FFF774F8A6
:1046500000250EE0681C86B20F4800EB051400EB45
:104660000617002020706760AFF2E020E060681C51
:1046700085B2042DEED3084800EB0514002020700D
:104680006060AFF2F820E060034804490860BDE8CC
:10469000F081000074000020001500205000002070
:1046A0002DE9F04106460D464FF00008307802280B
:1046B00004D0012028700020BDE8F08101F0BCF991
:1046C00080467468E08A78B12169081D20610F680E
:1046D000E08A401EE082A1682069884201D16068BA
:1046E00020610020287002E01F202870002740462B
:1046F00001F0A6F93846DFE72DE9F04106460F46FE
:104700004FF00008F748007810B10020BDE8F081B4
:1047100001F092F98046F4480568006820B1F2483B
:1047200000684068F0490860404601F089F93DB3EF
:1047300001F082F98046ED480468C4B10068006861
:10474000EA490860404601F07BF9666006EB8700A5
:10475000A060E6602661A7820020E0820220287027
:10476000002028816C602846FFF7C4FA08E0DE4884
:1047700000686860DC480560404601F061F900258A
:104780002846C3E72DE9F0470446894615464FF011
:10479000000A2078022804D0012028702046BDE8B5
:1047A000F087D048007818B10F2028702046F6E72F
:1047B00001F042F98246A07A10B14FF0010801E001
:1047C0004FF00008B9F1000F03D0B9F1010F45D146
:1047D0001FE0B8F1000F15D16668C448006830606A
:1047E000C248066000202070BF480068606000205A
:1047F0002081BD480460504601F022F90020287055
:10480000002705E0504601F01BF949202870274693
:104810002BE005E00023042219462046FFF7F9F9B2
:10482000A07A0028F6D16668B04800683060AF48CA
:10483000066000202070AC48006860600020208185
:10484000A9480460504601F0FBF8B8F1010F01D10E
:10485000FFF783F800202870002706E0504601F09B
:10486000EFF807202870274600BF00BF384696E7BC
:1048700070B50546002601F0DFF806466C686068F2
:10488000E060606820610020E082304601F0D8F8E6
:10489000002070BD2DE9F0470746884615464FF0C9
:1048A00000093878022804D0012028700020BDE8D3
:1048B000F0878C48007818B1022028700020F6E7B5
:1048C0008B48007818B10D2028700020EFE701F028
:1048D000B3F881467C68E08A98B12169081D20619F
:1048E0000E68E08A401EE082A1682069884201D1FA
:1048F00060682061484601F0A3F800202870304627
:10490000D5E77C48006890F8300040F00400794911
:10491000096881F8300000207649096881F8310083
:1049200074480068C0F82C803846FFF7ABF9484659
:1049300001F086F8FFF711F801F07EF881466D4826
:10494000006890F8310020B101280DD002280AD16A
:1049500005E068480068066A002028700DE000261F
:104960000E20287009E000BF394662480068FFF752
:104970003BF900260A20287000BF00BF00205D49D7
:10498000096881F830005B49096881F831005949AC
:104990000968C861574909680862484601F050F83B
:1049A000304684E72DE9F04104460F4615464FF0A6
:1049B00000082078022804D0012028700020BDE8DB
:1049C000F08101F039F88046A07A20B300267FB14B
:1049D000012F0CD107E00223042200212046FFF71B
:1049E00018F9701CC6B2A07A0028F4D109E000BF03
:1049F0000223042200212046FFF70BF9701CC6B2E7
:104A000000BF00BF404601F01BF8FEF7A6FF0E20D6
:104A100028703046D3E7404601F012F80020287095
:104A200000BFCCE72DE9F04105460E460027287867
:104A3000022802D00120BDE8F08100F0FDFF07460A
:104A4000A87A60B10023042231462846FFF7E1F836
:104A5000384600F0F5FFFEF780FF0020EBE76C68BA
:104A6000E08AA18A884204DB384600F0E9FF1E2074
:104A7000E1E7E168081DE0600E60E08A401CE0822A
:104A8000D4E90210884201D16068E060384600F045
:104A9000D7FF0020CFE72DE9F04105460E4600275D
:104AA0002878022802D00120BDE8F08100F0C4FF80
:104AB0000746A87A60B10023042231462846FFF752
:104AC000A8F8384600F0BCFFFEF747FF0020EBE7F0
:104AD0006C68E08AA18A88420EDB384600F0B0FF9D
:104AE0001E20E1E7610000204C000020880000202B
:104AF000620000207400002061682069884201D1B2
:104B0000A06820612069001F206120690660E08A9A
:104B1000401CE082384600F093FF0020C4E72DE9F6
:104B2000F04105460F4616464FF000082878022847
:104B300002D00120BDE8F08100F07EFF8046A87A17
:104B4000E8B106F0010050B105E000230422394627
:104B50002846FFF75EF8A87A0028F6D105E0002382
:104B6000042239462846FFF754F8404600F068FF13
:104B700006F0040008B9FEF7F0FE0020DAE76C68E2
:104B8000E08AA18A884204DB404600F059FF1E20DB
:104B9000D0E706F0020058B161682069884201D16F
:104BA000A06820612069001F20612069076009E07A
:104BB000E168081DE0600F60D4E90210884201D16D
:104BC0006068E060E08A401CE082404600F038FF08
:104BD0000020AFE72DE9F04705460C464FF0000AEC
:104BE0002878022802D00120BDE8F08700F024FFD9
:104BF0008246A87A207405F10B0804F10809002701
:104C000005E018F8010B09F8010B781CC7B2082F52
:104C1000F7D36E68F08A18B130690068206001E04F
:104C200000202060F08AA080B08AE080504600F02A
:104C300007FF0020D8E72DE9F04178211048FEF762
:104C40007BFD00240DE0601C86B204EB44000C499F
:104C500001EBC00506EB460001EBC0072F60601CAE
:104C600084B2042CEFD304EB4400054901EBC005EA
:104C700000202860084603490860BDE8F081000074
:104C8000401E00208800002070B5044600262078D1
:104C9000032801D0002070BD00F0CEFE0646258915
:104CA00015B12089401E2081304600F0C9FE2846FB
:104CB000F1E770B505460026D248007808B100201B
:104CC00070BD00F0B9FE0646CF480468006820B108
:104CD000CD4800684068CC490860304600F0B0FE1E
:104CE0003CB1032020702581002060602046FFF742
:104CF00001F82046E4E72DE9F047044688461546CA
:104D00004FF000092078032804D0012028702046A5
:104D1000BDE8F087BB48007818B10F202870204606
:104D2000F6E700F089FE8146A07A08B1012700E08D
:104D30000027B8F1000F03D0B8F1010F35D117E00B
:104D40007FB900202070B04800686060002020819A
:104D5000AD480460484600F073FE0020287000262D
:104D600005E0484600F06CFE49202870264623E006
:104D700005E00023012219462046FEF74AFFA07AEB
:104D80000028F6D12070A0480068606000202081D3
:104D90009D480460484600F053FE012F01D1FEF704
:104DA000DCFD00202870002606E0484600F048FEA2
:104DB00007202870264600BF00BF3046A8E72DE92F
:104DC000F04105460E46144600272878032803D0F4
:104DD00001202070BDE8F0818A48007810B10220DF
:104DE0002070F7E78948007810B10D202070F1E7B6
:104DF00000F022FE0746288940B12889401E2881FC
:104E0000384600F01DFE00202070E3E7804800686F
:104E100090F8300040F001007D49096881F83000C9
:104E200000207B49096881F8310079480068C66232
:104E30002846FEF727FF384600F002FEFEF78DFDFC
:104E400000F0FAFD07467248006890F8310020B182
:104E5000012809D0022806D102E0002020700BE0D2
:104E60000E20207008E000BF294669480068FEF760
:104E7000BBFE0A20207000BF00BF00206449096803
:104E800081F830006249096881F831006049096899
:104E9000C861384600F0D4FD00BF9BE72DE9F04122
:104EA00004460F4615464FF000082078032804D02A
:104EB000012028700020BDE8F08100F0BDFD804693
:104EC000A07A20B300267FB1012F0CD107E0022386
:104ED000012200212046FEF79CFE701CC6B2A07A7B
:104EE0000028F4D109E000BF02230122002120465E
:104EF000FEF78FFE701CC6B200BF00BF404600F038
:104F00009FFDFEF72AFD0E2028703046D3E740466D
:104F100000F096FD0020287000BFCCE770B5044675
:104F200000252078032801D0012070BD00F084FD09
:104F30000546A07A60B10023012219462046FEF7FB
:104F400068FE284600F07CFDFEF707FD0020ECE738
:104F500020894FF6FF71884207D22089401C2081AA
:104F6000284600F06DFD0020DFE7284600F068FDD0
:104F70003320DAE72DE9F04704460D464FF00009EB
:104F80002078032802D00120BDE8F08700F054FD0E
:104F90008146A07AA87204F10B0705F102080026E9
:104FA00005E017F8010B08F8010B701CC6B2082EBB
:104FB000F7D320892880484600F042FD0020E3E72F
:104FC0002DE9F04104460E461546002720780328B7
:104FD00003D001202870BDE8F08100F02DFD0746C8
:104FE00000202870208908B1268105E0A07A08B940
:104FF000268101E049202870384600F021FD00BFDD
:10500000E9E70000610000204C0000206200002061
:10501000740000202DE9FF5F814688460020009043
:1050200000F00AFD0090F94850F8280030B10098CF
:1050300000F006FD282004B0BDE8F09FB9F1FF0F95
:1050400003D1F348006890F83290F04850F82940B6
:1050500024B9009800F0F4FC2920ECE7012C04D1DD
:10506000009800F0EDFC4320E5E74FEAE80708F080
:10507000070003900120B84000F0FF0A01210398C7
:10508000814001F0FF0B0020E04941F8290008466B
:1050900040F8284014F8346FA07802906078343CCF
:1050A0000190DC48815D01980140D1B1D948805D13
:1050B00001998843D74988550846805D28B9D64864
:1050C000007802998843D4490870D348007840EAB0
:1050D0000A00D1490870CF48C05D40EA0B00CD49B5
:1050E000C855E569D5B105F10B00805D019988438C
:1050F00005F10B0188550846805D18B9A87A029918
:105100008843A872A87A40EA0A00A87205F10B0049
:10511000C05D40EA0B0005F10B01C85584F83280F0
:1051200084F83470039884F8330084F836A084F847
:1051300035B0009800F084FCB8480078012801D10F
:10514000FEF70BFC002076E72DE9FE4F06460F46E2
:1051500090461C464FF0000900F06EFC8146B048B6
:10516000007828B1484600F06BFC3C20BDE8FE8F7B
:10517000A64850F8240060BB0120A44941F824004F
:10518000484600F05DFC002342463946304600F0B8
:1051900001FC8246002000900190034602465146E1
:1051A00002902046FEF7C8FD054635B99B480078B9
:1051B00001280CD1FEF7D1FB09E000F03DFC81464F
:1051C0000020924941F82400484600F039FC284666
:1051D000CCE7484600F034FC2820C7E702F0010382
:1051E00043B102F002032BB102E0491E002308C0C4
:1051F0000029FAD170472DE9F04F85B081468A46E3
:1052000093461C46DDE90F78129D0020039000F0C4
:1052100013FC03908248007830B1039800F010FC32
:105220003C2005B0BDE8F08F784850F8240088BBDA
:105230000120764941F82400039800F001FC2A4639
:1052400041463846FFF7CAFF2B465A465146484664
:1052500000F0A0FB04901198CDE9008002953A4639
:1052600020460E9B0499FEF767FD064636B96B484B
:10527000007801280CD1FEF770FB09E000F0DCFBA0
:1052800003900020614941F82400039800F0D8FB06
:105290003046C6E7FFE7039800F0D2FB2820C0E7BE
:1052A0002DE9F041054600275D48007810B1402007
:1052B000BDE8F0813F2D01D13E20F9E700F0BCFBB5
:1052C0000746FF2D03D15248006890F832504F48EE
:1052D00050F8254024B9384600F0B2FB4320E7E7F8
:1052E000012C04D1384600F0ABFB3D20E0E714F878
:1052F000340F4849085C617888432178454A505406
:1053000014F834091146085C30B994F83610424854
:105310000078884340490870E06918B12046E16987
:10532000FEF762FC666A16B13046FEF75CFE0020AE
:10533000E06284F8300084F831003A480078FF28B1
:1053400004D238480078401C36490870384600F0CE
:1053500077FBFEF748FC00F06FFB0746314800780A
:1053600020B130480078401E2E490870204600F0D9
:105370000EFB2D480078401E2B4908700020234961
:1053800041F82500A06930B900206169886127498A
:105390006069086005E0D4E905014861D4E90510B9
:1053A00088612348006860612148046021A0E064AE
:1053B000384600F045FB19480078012801D1FEF776
:1053C000CCFA002074E72DE9F041044600273F2C79
:1053D00002D13E20BDE8F081FF2C0BD100F02CFB68
:1053E00007460B48006890F83760384600F028FB05
:1053F0003046EFE700F020FB0746044850F8245001
:10540000D5B9384600F01CFB4320E3E750190020D3
:105410007400002066000020650000206E0000205F
:1054200061000020620000206F000020800000204A
:10543000780000203F000000012D04D1384600F024
:10544000FFFA3D20C6E73F2085F83700384600F0D8
:10545000F7FA0020BEE72DE9F04706460F4614464E
:105460004FF00008D648007820B1112020700020AD
:10547000BDE8F08700F0E0FA8046FF2E03D1D14866
:10548000006890F83260D04850F8265035B9404650
:1054900000F0D6FA432020700020E9E7012D06D164
:1054A000404600F0CDFA432020700020E0E7E86C91
:1054B00038603868FEF736FC8146404600F0C0FA96
:1054C000002020704846D3E72DE9F04106460F46FC
:1054D00014464FF00008BA48007818B11220207026
:1054E000BDE8F08100F0A8FA8046FF2E03D1B54850
:1054F000006890F83260B44850F826502DB9404604
:1055000000F09EFA43202070EAE7012D05D14046C5
:1055100000F096FA43202070E2E7EF64404600F086
:105520008FFA0020207000BFDAE770B5054600262C
:1055300000F082FA0646A44850F8254024B93046C7
:1055400000F07EFA462070BD012C04D1304600F0F8
:1055500077FA4320F7E794F8300000F0080060B3D2
:1055600014F8300F00F0F700207014F83009F8B983
:10557000E06AC8B93434A07894490978084393495B
:10558000087020789249085C6178084314F834194F
:105590008F4A5054304600F053FA8E480078012864
:1055A00009D1FEF7DAF906E0304600F049FA02E0E8
:1055B000304600F045FA0020C5E7304600F040FADA
:1055C0004420C0E72DE9F04707460D464FF0000A9A
:1055D00000202860686000F02FFA8246FF2F03D178
:1055E0007848006890F83270774850F827402CB916
:1055F000504600F025FA4320BDE8F087012C04D185
:10560000504600F01DFA4320F6E7207C00F0010030
:1056100020B9504600F014FA4520EDE70026D4F8F2
:105620000C90D4F80880504600F00AFA00E0761C8E
:1056300058F8041B0029FAD0B0002860A9EB060036
:10564000800068600020D7E72DE9F04105464FF063
:10565000000800F0F1F98046FF2D05D15948006897
:1056600090F83250012608E05648006890F8320061
:10567000A84201D1012600E00026534850F82540F9
:105680002CB9404600F0DCF94820BDE8F081012C3F
:1056900004D1404600F0D4F94320F6E794F8347082
:1056A0004B48C05D94F8351088434949C8550846B1
:1056B000C05D30B994F836104448007888434349B7
:1056C000087094F8300040F0080084F8300040463C
:1056D00000F0B6F9012E01D1FEF73FF90020D4E722
:1056E0002DE9F04105460E46002700F0A5F90746D2
:1056F000FF2D03D13348006890F83250324850F8FB
:1057000025402CB9384600F09BF92920BDE8F081EE
:10571000012C04D1384600F093F94320F6E75422D7
:1057200021463046FEF7F4FA384600F089F90020A9
:10573000ECE72DE9F04704460E4617464FF0000906
:1057400000F07AF98146FF2C02D11E48056802E07C
:105750001D4850F8245005F1500050F82680484666
:1057600000F06EF9002038704046BDE8F0872DE962
:10577000F04704460E46174698464FF0000900F0E1
:105780005BF98146FF2C02D10E48056802E00E4805
:1057900050F8245005F1500040F82670484600F0BB
:1057A0004FF9002088F80000BDE8F08710B50548E3
:1057B000006800F03FF9FF20FFF772FD10BD000008
:1057C00061000020740000205019002065000020B6
:1057D000660000206E00002070B505460026634874
:1057E000007800B170BD6248007800B1FAE71DB3DF
:1057F00000F022F906465F48006890F834405E48A1
:10580000005D5C49096891F8351088435A4908558C
:105810000846005D40B95748006890F83610574870
:10582000007888435549087052480068C562304680
:1058300000F006F9FEF791F800BFD3E72DE9F0413B
:1058400004460D4616461F464848007810B15520BC
:10585000BDE8F0814648007808B13220F8E7B81C6E
:10586000C82148434FF47A71B0FBF1F14FF4616005
:105870006043C5EB051200EB8200304400EBC00230
:1058800002EB001001EBC0084046FFF7A5FF002027
:10589000DEE770B5054600263F2D01D32A2070BDF6
:1058A00000F0CAF80646364850F8254024B930467C
:1058B00000F0C6F84320F2E7012C04D1304600F096
:1058C000BFF84320EBE7E06A20B9304600F0B8F8B3
:1058D0005020E4E70020E06294F8300000F0370048
:1058E00040B114F8300F20F03700207001206070B4
:1058F000303C02E0002084F8310094F8300000F0E1
:105900000800A8B93434A0781C49097808431B4919
:10591000087020781849085C6178084314F8341935
:10592000154A5054304600F08BF8FEF716F802E0A6
:10593000304600F085F80020B1E770B5002500F092
:105940007BF805460F480468284600F079F82046A1
:1059500070BD70B50446002500F06EF80546094894
:105960000460284600F06CF870BD00006100002063
:105970006200002074000020660000206500002006
:10598000501900208C000020704770477047704706
:105990007047704770B5044610464FF0807505603B
:1059A000051F28462C606FF00106051F28462E6053
:1059B0004FF01236051F28462E604FF00336051FA4
:1059C00028462E604FF00236051F28462E607610BE
:1059D000051F28462E60051F284629604FF0113606
:1059E000051F28462E604FF01036051F28462E60F2
:1059F0004FF00936051F28462E604FF00836051F68
:105A000028462E604FF00736051F28462E604FF0BF
:105A10000636051F28462E604FF00536051F28461E
:105A20002E604FF00436051F28462E6070BD70476B
:105A30007047704770470000EFF3108072B67047F0
:105A400080F310887047204C204D25604FF00004F3
:105A500084F309881E4C4FF0010525701D4C4FF052
:105A60008055256062B6FEE730B41A4C4FF0805581
:105A7000256030BC704730B4164C4FF0805525601F
:105A800030BC704700BF72B6EFF3098028B12038F0
:105A900080E8F00F10490968086000B50F4880479A
:105AA0005DF804EB0E480F490A7802700A480E4967
:105AB0000A680260106890E8F00F203080F30988CF
:105AC0004EF0040E62B6704720ED00E00000FFFFCC
:105AD0006E00002004ED00E0740000202F5A000842
